:020000040000FA
:100000000A128A1112280800FE00030E831203133D
:10001000C6000408C7000A08C8007F08C9000A1201
:100020008A15C72D0A128A1115288313D330FD00B3
:100030000A30FE00CD30FF00A03084000A128A157D
:10004000ED210A128A116B30FD000930FE004330A9
:10005000FF00663084000A128A15ED210A128A1107
:10006000831790308400B9300A128A1548210A1289
:100070008A118313D3308400EC300A128A15482188
:100080000A128A112030840046300A128A1548214B
:100090000A128A1183010A128A15A929FF00003069
:1000A0008A007F0882075328542855285628572845
:1000B000582859280A128A1103280A128A15492C2D
:1000C0000A128A15342FFF0000308A007F08820749
:1000D00068280A128A15C6290A128A1550290A1296
:1000E0008A15692A0A128A15B7290A128A15D72988
:1000F00083120313D100D0018A29510A8400000819
:10010000FF007F08E605A92800300A128A116B2635
:100110000A128A11FF007F0883120313D0005108CE
:10012000043E840083130008FF007F08BD00A0295F
:1001300000300A128A15FD240A128A11FF007F0876
:1001400083120313D000A0291930FF007F08D007C5
:10015000A0295108023E84000008CE00CF014F08BC
:10016000003A0319B428A4284E08A03A0319842899
:100170007F3A03199828A4285108033E84000008F8
:100180000838FF007F08B304E52801300A128A11FD
:100190006B260A128A11FF007F0883120313D00016
:1001A0005108043E840083130008FF007F08BC0050
:1001B000A02901300A128A15FD240A128A11FF00B3
:1001C0007F0883120313D000A0295108023E840047
:1001D0000008CE00CF014F08003A0319F028A428E8
:1001E0004E08013A0319C528FF3A0319D928A42853
:1001F0005108033E84000008FF007F08B304202953
:1002000001300A128A116B260A128A11FF007F0838
:1002100083120313D0005108043E840083130008A6
:10022000FF007F08BC00A02901300A128A15FD24B6
:100230000A128A11FF007F0883120313D000A0293D
:100240005108023E84000008CE00CF014F08003A5A
:1002500003192B29A4284E08013A03190029FF3A53
:1002600003191429A4281730FF007F08D007A029FC
:10027000510A84000008CE00CF014F08003A03194C
:10028000422933294E08003A0319BC28013A0319C0
:10029000F82833295108033E84000008FF007F0836
:1002A0009204722902300A128A116B260A128A11EC
:1002B000FF007F0883120313D0005108043E84001E
:1002C00083130008FF007F08BB00A02902300A1238
:1002D0008A15FD240A128A11FF007F088312031376
:1002E000D000A0295108023E84000008CE00CF01B2
:1002F0004F08003A03197D29A4284E08023A031931
:100300005229FF3A03196629A4281B30FF007F08F1
:10031000D007A0295108840083130008CE00CF0124
:100320004F08003A0319952985294E08003A031908
:100330007D28013A03193829033A03194A298529E6
:100340005008080083120313CD00CC01BA01BA0A89
:100350003908031DAC29AD29E329C22983160313EB
:100360008501DE29831603138601DE298316031314
:100370008701DE29831603138801DE298316031300
:100380008901DE294D08840083130008CA00CB01CF
:100390004B08003A0319CD29DE294A08003A03190F
:1003A000AE29013A0319B229033A0319B629013AD1
:1003B0000319BA29073A0319BE29DE290130FF00C3
:1003C0007F088312B9074D08840083130008031DBA
:1003D000EA29EB29F4294D08033E84000008FF00B8
:1003E0007F08831603139F0483124D080319F9290C
:1003F000FA29B12A9F2A4D08023E84000008FF0016
:100400007F08831603138504B52A4D08023E840035
:100410000008FF007F08831603138604B52A4D08E1
:10042000023E84000008FF007F0883160313870440
:10043000B52A4D08023E84000008FF007F0883169D
:1004400003138804B52A4D08023E84000008FF000B
:100450007F08831603138904B52A0F30FF007F0835
:10046000CC07B52A4D0884000008CA00CB014B0810
:10047000003A03193C2A2D2A4A08003A0319FB299D
:10048000013A0319052A033A03190F2A013A0319FD
:10049000192A073A0319232A2D2A4D08023E8400FF
:1004A0000009FF007F08831603138505B52A4D0850
:1004B000023E84000009FF007F08831603138605AF
:1004C000B52A4D08023E84000009FF007F0883160C
:1004D00003138705B52A4D08023E84000009FF007A
:1004E0007F08831603138805B52A4D08023E840051
:1004F0000009FF007F08831603138905B52A4D08FC
:1005000084000008CA00CB014B08003A0319892A6D
:100510002D2A4A08003A03194D2A013A0319572A8D
:10052000033A0319612A013A03196B2A073A03199E
:10053000752A2D2A1330FF007F08CC07B52A4D0AF3
:1005400084000008CA00CB014B08003A0319A92A0D
:100550009A2A4A08003A0319322AFF3A03197F2AD5
:100560009A2A1130FF007F08CC0783124C0808003C
:100570008312031334080319BE2ABF2A752BB40152
:10058000B5010730FF007F08CA0035080A128A1536
:100590002A220A128A11913E840083170008031D43
:1005A000D22AD32AD42A692B0730FF007F0883126E
:1005B0000313CA0035080A128A152A220A128A1160
:1005C000953E8400013083178007840A0318800A4F
:1005D0000730FF007F0883120313CA0035080A1290
:1005E0008A152A220A128A11953E84008317000870
:1005F00083160313EC00840A0008ED000730FF00A7
:100600007F0883120313CA0035080A128A152A22AA
:100610000A128A11923E840083170008831603137E
:10062000EE00840A0008EF006D086F06031D1A2B08
:100630006C086E06031D1D2B1E2B452B0730FF007B
:100640007F0883120313CA0035080A128A152A226A
:100650000A128A11903E8400831700080A128A1138
:100660004E200A128A110730FF007F0883120313FD
:10067000CA0035080A128A152A220A128A11953EE2
:10068000840083178001840A80010730FF007F08FF
:1006900083120313CA0035080A128A152A220A1285
:1006A0008A11943E840083170008031D582B592B90
:1006B000692B0730FF007F0883120313CA00350837
:1006C0000A128A152A220A128A11913E840083177F
:1006D00080010130FF007F0883120313B507033048
:1006E0003502031C742B752BC12A080083120313D7
:1006F000CF00CE013808031D7E2B7F2B162C8A2BB2
:100700008501A32B8601A32B8701A32B8801A32B93
:100710008901A32B4F08CC00CD014D08003A0319E5
:10072000922BA32B4C08003A0319802B013A031992
:10073000822B033A0319842B013A0319862B073ABB
:100740000319882BA32B0130FF007F08B807162C54
:100750004A08FF007F088504262C4A08FF007F080E
:100760008604262C4A08FF007F088704262C4A08A6
:10077000FF007F088804262C4A08FF007F088904B0
:10078000262C0F30FF007F08CE07262C4F08CC0008
:10079000CD014D08003A0319CE2BC12B4C08003A6D
:1007A0000319A82B013A0319AD2B033A0319B22BF5
:1007B000013A0319B72B073A0319BC2BC12B4A097D
:1007C000FF007F088505262C4A09FF007F08860563
:1007D000262C4A09FF007F088705262C4A09FF00BE
:1007E0007F088805262C4A09FF007F088905262CEA
:1007F0004F08CC00CD014D08003A0319002CC12B45
:100800004C08003A0319DF2B013A0319E42B033A91
:100810000319E92B013A0319EE2B073A0319F32BBD
:10082000C12B1330FF007F08CE07262C4B08CC00CD
:10083000CD014D08003A03191E2C112C4C08003A2A
:100840000319F82BFF3A0319C62B112C4E08080088
:10085000F500F401831203133808031D302C312CEA
:10086000C82C3C2C8501552C8601552C8701552C14
:100870008801552C8901552C7508F200F301730885
:10088000003A0319442C552C7208003A0319322CF3
:10089000013A0319342C033A0319362C013A03198F
:1008A000382C073A03193A2C552C0130FF007F08E9
:1008B000B807C82C7008FF007F088504D82C700882
:1008C000FF007F088604D82C7008FF007F0887048B
:1008D000D82C7008FF007F088804D82C7008FF000F
:1008E0007F088904D82C0F30FF007F08F407D82C2C
:1008F0007508F200F3017308003A0319802C732C79
:100900007208003A03195A2C013A03195F2C033A72
:100910000319642C013A0319692C073A03196E2C48
:10092000732C7009FF007F088505D82C7009FF0023
:100930007F088605D82C7009FF007F088705D82C12
:100940007009FF007F088805D82C7009FF007F0818
:100950008905D82C7508F200F3017308003A0319D1
:10096000B22C732C7208003A0319912C013A031926
:10097000962C033A03199B2C013A0319A02C073A31
:100980000319A52C732C1330FF007F08F407D82C13
:100990007108F200F3017308003A0319D02CC32C3C
:1009A0007208003A0319AA2CFF3A0319782CC32CB9
:1009B0007408080083120313D6005608013E840011
:1009C0000A128A1500200A128A11FF007F08D4003B
:1009D000D5010130FF007F08B6075608031DF12C32
:1009E000F22C102D3030FF007F08D500102DBC30C8
:1009F0000A128A1178200A128A114B2DB7300A1276
:100A00008A1178200A128A110430FF007F088312AD
:100A10000313BB004B2D0130FF007F08D5074B2D82
:100A20005408D200D3015308003A0319182D0B2D96
:100A30005208003A0319F72C023A0319FE2C0B2D29
:100A4000FA30CA000030CB0000300A128A15682341
:100A50000A128A11602DFA30CA000030CB00023031
:100A60000A128A1568230A128A11602D0130FF00CC
:100A70007F08D507602D5408D200D3015308003AEF
:100A80000319432D362D5208003A0319202D023A3E
:100A900003192B2D362D83120313560884000A12D6
:100AA0008A1500200A128A11D200D3015308003A95
:100AB00003195B2D362D5208013A03193B2D362DB3
:100AC000831203135508080083120313D100D001C9
:100AD000510A84000430831300020318702D712D15
:100AE000902D5108023E84000008CE005108840079
:100AF00000084E040138FF007F089F04BF30FF004C
:100B00007F08831603139F05831203135108033EC6
:100B100084000008FF007F08831603139F04D42D70
:100B2000510A840004300002031C972D982DB82D23
:100B3000510A84000830000203189F2DA02DB82D03
:100B40005108023E84000008CE00510884000008CD
:100B50004E040138FF007F089F045108033E8400C3
:100B600000084038FF007F08831603139F04D42D2C
:100B70001F30FF007F08D007D42D40300A128A11A1
:100B80006B260A128A11FF007F0883120313D0001C
:100B90000130FF007F08C200E82D40300A128A159C
:100BA000FD240A128A11E82D83125108043E8400A4
:100BB0000008CE00CF014F08003A0319E02DE82DC0
:100BC0004E08403A0319BD2DFF3A0319CD2DE82DEB
:100BD000831203135008080083120313D200D301B9
:100BE000562E1030FF007F08CA004330FF007F08F8
:100BF000CB0002300A128A1579260A128A11831252
:100C000003134303031D052E062E132E0130FF0090
:100C10007F08A30733302302031C0F2E102E132E40
:100C2000D301D30A692ED301692E0430FF007F0857
:100C3000CA004430FF007F08CB0001300A128A1539
:100C400079260A128A11831203134403031D292EE5
:100C50002A2E132E0130FF007F08A3073330230212
:100C6000031C332E342E132E01306A2E0430FF0065
:100C70007F08CA004530FF007F08CB0000300A1211
:100C80008A1579260A128A11831203134503031D5C
:100C90004A2E4B2E132E0130FF007F08A40715307B
:100CA0002402031C542E552E132E102E5208D00051
:100CB000D1015108003A03195E2E692E5008003AFE
:100CC0000319F12D013A0319152E033A0319362E93
:100CD000692E5308080083120313CC00CD01C82EDF
:100CE000A030FF007F088B043F08031D782E792E6B
:100CF0007A2E8B17BF01BF0AE12E0A128A155B21DB
:100D00000A128A11831603130C14831203133E086C
:100D1000031D8B2E8C2E8D2E0B17BE01BE0AE12ECD
:100D20000A128A155B210A128A11831203133E08E4
:100D3000031D9B2E9C2E9D2E0B17BE01BE0A8316F3
:100D400003138C14E12E0A128A155B210A128A11F0
:100D5000831203133E08031DAE2EAF2E8D2E8C2E54
:100D60000A128A155B210A128A11831203133E08A4
:100D7000031DBB2EBC2EBD2E0B17BE01BE0A831653
:100D800003130C17E12E1D30FF007F08CD07E12E65
:100D90004C08CA00CB014B08003A0319D02EC32ED1
:100DA0004A08003A0319702E013A03197D2E033ABE
:100DB0000319902E013A0319A32E433A0319B02EBA
:100DC000C32E83124D08080083120313D100D201F1
:100DD0000130FF007F08B4073603031DF02EF12E0B
:100DE0003B2F0730FF007F08CA004E080A128A1501
:100DF0002A220A128A11903E84008312031351089A
:100E0000FF007F08831780000730FF007F08CA00BB
:100E10004E080A128A152A220A128A11943E840068
:100E2000831203134D08FF007F08831780000730EB
:100E3000FF007F08CA004E080A128A152A220A12E9
:100E40008A11923E8400831203134F088317800097
:100E5000840A500880000730FF007F08CA004E084F
:100E60000A128A152A220A128A11913E84008317D7
:100E70008001800A4A2F02303602031C402F412F86
:100E8000462F0A30FF007F08D2074A2F0C30FF00A0
:100E90007F08D2078312031352080800831203133A
:100EA000CF01CB1F542F552F5C2FCA09CB09CA0A7B
:100EB0000319CB0ACF01CF0ACD1F5F2F602F692FF7
:100EC000CC09CD09CC0A0319CD0A0130FF007F08F7
:100ED000CF06D001D1014A084B040319702F712F9E
:100EE000A82FCE01CE0A7F2F01300310CA0DCB0DE3
:100EF000FF3E031D752F0130FF007F08CE07CB1F7B
:100F0000822F832F742F01300310D00DD10DFF3E9F
:100F1000031D842F4B084D02031D902F4A084C02DD
:100F2000031C932F942F9B2F4A08CC024B08031CC1
:100F3000CD03CD02501401300310CB0CCA0CFF3E80
:100F4000031D9C2F0130CE02031DA72FA82F832F36
:100F50004F080319AC2FAD2FB22FD009D109D00AF9
:100F60000319D10A5108CB005008CA0008000A1220
:100F70008A158D210A128A11C22F0A128A157F2121
:100F80000A128A11A0300A128A15FC210A128A114B
:100F9000003A031DCC2FCD2FBD2F831203134C0815
:100FA0000A128A15FC210A128A11831203134B08B4
:100FB0000A128A15FC210A128A110A128A157F2147
:100FC0000A128A11A1300A128A15FC210A128A110A
:100FD0000A128A1513220A128A11FF007F0883124F
:100FE0000313CD000A128A1566210A128A110A1209
:100FF0008A159B210A128A11831203134D080800D7
:1010000008308A000408840A82070034013402345C
:10128600FF3400340C34FF34063464008001840AD1
:10129600040603190034040649290130FF007F08BB
:1012A60083120313B407FD30FF007F088C05080086
:1012B600831203133F08031D6129622963298B17D3
:1012C600BF01BF0A08008316031391160A128A1576
:1012D60072210A128A158316031311160800831643
:1012E6000313141977297829722911081F39031D48
:1012F6007D297E29722908000A128A1572210A128E
:101306008A1500308316031391180130FF007F08F9
:10131600910408000A128A1572210A128A150030F1
:101326008316031311180130FF007F08910408008B
:101336000A128A1572210A128A15003083160313BF
:1013460011190130FF007F08910408000A128A155E
:101356009D230A128A150A128A11B8220A128A15C0
:10136600AE290A128A1112288316031387018312E3
:1013760003131F15FF30FF007F088706FB30FF00B1
:101386007F088B050800831203131E08AD00831621
:1013960003131E0883120313AC0040300A128A1589
:1013A60084240A128A150800831603138701FF3066
:1013B600FF007F08831203138706FF30FF007F08B4
:1013C6008706FE30FF007F088C0508007E088A002D
:1013D6007F0882000A128A15E9210A128A158000FE
:1013E600840A04087D0603190034FF0A0319FE0A5D
:1013F600ED2983120313CA000A128A1572210A12F2
:101406008A15831203134A0893008C1D0B2A0C2A93
:10141600082A8C11003083160313111B01300800B3
:101426000A128A1572210A128A1583160313911558
:1014360083128C1D1F2A202A1B2A8C110A128A1538
:1014460072210A128A1583120313130808008312E5
:101456000313CC00CB014C1C312A322A362A4A0807
:10146600FF007F08CB070310CA0D0310CC0C4C08F5
:10147600031D3E2A3F2A2E2A4B0808005E2A013009
:10148600CE000030CF000030D0000030D1004E0832
:10149600CA024F08031C4F0F512A522ACB0250088A
:1014A600031C500F572A582ACC025108031C510F0F
:1014B6005D2A5E2ACD02831203134D084C044B04A9
:1014C6004A04031D672A682A422A08003330831219
:1014D60003134102031C702A712A912A88014008CD
:1014E6000A128A157D250A128A15831203134008EB
:1014F6002A3E840083130008A03E84000008FF00F3
:101506007F088800C1010130FF007F08C007023054
:101516004006031D8F2A902A912AC0010130FF0040
:101526007F08C107FB30FF007F088B050800F80025
:10153600F901BB2A0430FF007F08F000F1010030FA
:101546000A128A1128240A128A15FF007F08F90751
:10155600CB2A0830FF007F08F000F10100300A12A4
:101566008A1128240A128A15FF007F08F907CB2A58
:101576007808F600F7017708003A0319C32ACB2A40
:101586007608003A03199D2A013A0319AC2ACB2A98
:1015960079080800FE3406346D344F3466346D34F1
:1015A6007D3407347F346F340134003401343034F1
:1015B6000D3402341834003400340134FF34FF345F
:1015C6000034023400340234023404340034C734A4
:1015D600A03400340A340034C234A0340034073452
:1015E6000034013440348034BF34003401340034D4
:1015F60006340334FF34FF3400340A128A158D2171
:101606000A128A150B2B0A128A157F210A128A15CD
:10161600A0300A128A15FC210A128A15003A031D07
:10162600152B162B062B831203134C080A128A1548
:10163600FC210A128A15831203134B080A128A1513
:10164600FC210A128A15831203134D080A128A1501
:10165600FC210A128A150A128A159B210A128A157A
:101666000800C1300A128A1178200A128A156730DA
:101676000A128A11A2210A128A15FF007F08831214
:101686000313D40000300A128A15D5230A128A15CC
:10169600FF007F0883120313D40701300A128A154C
:1016A600D5230A128A15FF007F0883120313D40775
:1016B600CF300A128A11A2210A128A15FF007F086A
:1016C60083120313D4005408080083120313CE00B8
:1016D600CF01872B6608FF007F088316031381005E
:1016E6009A2B3308FF007F08900010149A2B1215CE
:1016F6004A08FF007F088316031392009A2B1B30BB
:10170600FF007F08CF079A2B4E08CC00CD014D086D
:10171600003A03198F2B822B4C08003A03196D2BC4
:10172600013A0319742B033A03197A2B822B83127D
:101736004F08080001300A128A11DA240A128A15A3
:1017460083120313CD01CD0ACE010130CF00003044
:10175600D0000A300A128A11E4260A128A15831268
:101766000313CD01CD0ACE01CE0A3230CF000030B0
:10177600D0000D300A128A11E4260A128A15831245
:101786000313CD01CD0A0230FF007F08CE00C4301E
:10179600CF000930D00007300A128A11E4260A1257
:1017A6008A15080083120313D200D301FC2B0430E0
:1017B600FF007F08CA00CB0100300A128A11762387
:1017C6000A128A15FF007F0883120313D3070C2C15
:1017D6000830FF007F08CA00CB0100300A128A11C8
:1017E60076230A128A15FF007F0883120313D30794
:1017F6000C2C5208D000D1015108003A0319042CD0
:101806000C2C5008003A0319DA2B013A0319EB2B7A
:101816000C2C53080800003083120313CD0000304F
:10182600CC000030CB000230CA000A128A153D25D2
:101836000A128A15C530FF007F08831203139F051D
:101846001F080030CD000030CC000030CB001E3029
:10185600CA000A128A1541220A128A158312031334
:101866001F151F08D60004300310D60CFF3E031DBB
:10187600372C56183F2C402C342C1E08D5008316C6
:1018860003131E0883120313D400080000300A1243
:101896008A11EC250A128A15003A0319532C542C86
:1018A6005A2C0130FF007F0883120313B00715304E
:1018B600831203133002031C612C622C672C013047
:1018C600FF007F08B107B00101300A128A11EC252A
:1018D6000A128A15003A0319712C722C782C0130E1
:1018E600FF007F0883120313AF071530831203131B
:1018F6002F02031C7F2C802C832C0130B102AF01F8
:101906000800F300F201A62CEF30FF007F088B05DC
:10191600BF2CFD30FF007F08831203138C05BF2CFC
:10192600FB30FF007F08831203138C05BF2CBF30EA
:10193600FF007F08831203138C05BF2C1D30FF00A8
:101946007F08F207BF2C7308F000F1017108003A16
:101956000319AE2CA12C7008003A0319872C013A02
:1019660003198C2C033A0319932C013A0319BF2C43
:10197600433A03199A2CA12C08002830831203132A
:101986009400831603139101831203135808DC0095
:101996005908DD005A08DE005B08DF00023003103C
:1019A600DC0DDD0DDE0DDF0DFF3E031DD22C5F08C5
:1019B600CD005E08CC005D08CB005C08CA00003094
:1019C600D1007A30D0001230CF000030CE000A129B
:1019D6008A1598270A128A15831203134A08FF3EAE
:1019E60083160313930094010330FF007F088704D6
:1019F6000715080083120313CC00CD01212DDF301B
:101A0600FF007F088B053A2DFE30FF007F08831606
:101A160003138C053A2DFD30FF007F088316031350
:101A26008C053A2DBF30FF007F08831603138C0503
:101A36001D30FF007F088312CD073A2D4C08CA00DF
:101A4600CB014B08003A0319292D1B2D4A08003AF1
:101A56000319022D013A0319072D033A03190E2D16
:101A6600013A03193A2D433A0319152D1B2D8312FA
:101A76004D080800722D1530FF007F08D300512D48
:101A8600FF30FF007F08D2004A2D0130D2025208F3
:101A9600031D4E2D4F2D482D0130D3025308031D33
:101AA600552D562D432D0130CE000030CF0000308D
:101AB600D0000030D1004E08CA024F08031C4F0F59
:101AC600652D662DCB025008031C500F6B2D6C2D17
:101AD600CC025108031C510F712D722DCD028312B9
:101AE60003134D084C044B044A04031D7B2D7C2D27
:101AF6003E2D0800FC00FD01B62D01300A128A15A4
:101B06009A220A128A15FF007F08FD070430FF009B
:101B16007F08F000FF30FF007F08F10000300A1256
:101B26008A1128240A128A15FF007F08FD07C62D90
:101B360000300A128A159A220A128A15FF007F08B7
:101B4600FD070830FF007F08F000FF30FF007F0828
:101B5600F10000300A128A1128240A128A15FF00A1
:101B66007F08FD07C62D7C08FA00FB017B08003ABA
:101B76000319BE2DC62D7A08003A0319802D013AA5
:101B860003199B2DC62D08000B1DCA2DCB2DD52D57
:101B96008B1ECE2DCF2DD52D3D080A128A1163201E
:101BA6000A128A15831203130C1CDA2DDB2DE92D7C
:101BB600831603130C1CE02DE12DE92D831203136C
:101BC6003C080A128A1163200A128A15831203132B
:101BD6008C1CEE2DEF2DFD2D831603138C1CF42D7E
:101BE600F52DFD2D831203133B080A128A1163207B
:101BF6000A128A15831203130C1F022E032E112EAE
:101C0600831603130C1F082E092E112E831203139D
:101C160042080A128A1163200A128A1583120313D4
:101C26004908FF0048088A0047088400460E8300DA
:101C3600FE0E7E0E090083120313CF01CD1F242E44
:101C4600252E2C2ECC09CD09CC0A0319CD0ACF019D
:101C5600CF0ACB1F2F2E302E352ECA09CB09CA0A22
:101C66000319CB0A4A084B0403193A2E3B2E6A2E57
:101C7600CE01CE0A492E01300310CA0DCB0DFF3E10
:101C8600031D3F2E0130FF007F08CE07CB1F4C2ED1
:101C96004D2E3E2E4B084D02031D532E4A084C0274
:101CA600031C562E572E5D2E4A08CC024B08031CE9
:101CB600CD03CD0201300310CB0CCA0CFF3E031D31
:101CC6005E2E0130CE02031D692E6A2E4D2E4F0860
:101CD60003196E2E6F2E742ECC09CD09CC0A03196A
:101CE600CD0A4D08CB004C08CA0008008312031326
:101CF600CF00CE01B02E05084A05FF004B08840030
:101D06007F0883138000C92E06084A05FF004B088A
:101D160084007F0883138000C92E07084A05FF0048
:101D26004B0884007F0883138000C92E08084A05E3
:101D3600FF004B0884007F0883138000C92E090822
:101D46004A05FF004B0884007F0883138000C92ED4
:101D56000E30FF007F08CE07C92E4F08CC00CD01FC
:101D66004D08003A0319B82EAB2E4C08003A031959
:101D76007E2E013A0319872E033A0319902E013A53
:101D86000319992E073A0319A22EAB2E4B0884008D
:101D9600831300080319D02ED12ED52E4B088400AC
:101DA6008001800A080083120313D500D401633032
:101DB60055020318DF2EE02E172F0A305502031C9A
:101DC600E52EE62E172F0A30CA000030CB00550844
:101DD600D200D3015208CC005308CD000A128A1152
:101DE6004E270A128A15831203134A08FF007F083A
:101DF600AA000A30CA000030CB005508D200D30131
:101E06005208CC005308CD000A128A151E260A1263
:101E16008A15831203134A08FF007F08D500550868
:101E2600FF007F08AB00232F0A30550203181C2F32
:101E36001D2F1F2FAA01122F0130FF007F08D40784
:101E46006430CA000030CB0000300A128A156823BD
:101E56000A128A15FF007F0883120313D400540860
:101E66000800831203132608FF007F08E200CB3028
:101E76000A128A11A2210A128A15C6300A128A117A
:101E860064250A128A150A128A1534230A128A153B
:101E9600003083120313DB000130DA008630D900EC
:101EA600A030D8000A128A15C0240A128A150A120E
:101EB6008A150E240A128A15831203135508A700E1
:101EC6005408A60026080A128A15D6260A128A156A
:101ED600203083120313CB000030CC006208FF00D1
:101EE6007F08CD000A128A1500230A128A152030AF
:101EF60083120313CB000030CC000A128A11B727D5
:101F06000A128A1583120313E000E1016008A80093
:101F16006108A900270883160317A6008312031376
:101F2600260883160317A500080000308312031342
:101F3600D6000030D5000030D4000030D3004D0864
:101F46004C044B044A040319A92FAA2FF72FD701D3
:101F5600D70ABA2F0130D2000310CA0DCB0DCC0D13
:101F6600CD0DD20BAF2F0130FF007F08D707CD1F55
:101F7600BD2FBE2FAD2F0130D2000310D30DD40DCF
:101F8600D50DD60DD20BC02F4D085102031DD52FEE
:101F96004C085002031DD52F4B084F02031DD52FA9
:101FA6004A084E02031CD82FD92FE82F4A08CE0222
:101FB6004B08031C4B0FCF024C08031C4C0FD002DE
:101FC6004D08031C4D0FD102531401300310CD0CE4
:101FD600CC0CCB0CCA0CFF3E031DE92F0130D702F7
:101FE600031DF62FF72FBE2F5608CD005508CC003F
:0A1FF6005408CB005308CA0008008D
:00000001FF
