:020000040000FA
:100000000A128A1112280800FE00030E831203133D
:10001000C7000408C8000A08C9007F08CA000A12FD
:100020008A15692D0A128A1115288317AE30FD0032
:100030000930FE001E30FF00A43084000A128A1529
:10004000C4210A128A118313EF30FD000A30FE002A
:100050001830FF00CE3084000A128A15C4210A121B
:100060008A116B30FD000930FE008230FF005D30E8
:1000700084000A128A15C4210A128A11831790304B
:100080008400A4300A128A1516210A128A118313D9
:10009000A0308400CE300A128A1516210A128A1165
:1000A0002030840047300A128A1516210A128A115C
:1000B00083010A128A157429FF0000308A007F0824
:1000C00082076128622863286428652866280A1246
:1000D0008A1103280A128A151A2D0A128A15132C5E
:1000E000FF0000308A007F08820775280A128A15EF
:1000F00090290A128A1528290A128A15612A0A12D9
:100100008A159F290A128A15AE2983120313D20079
:10011000D1019729520A84000008FF007F08DE05FC
:10012000B62800300A128A1110270A128A11FF001D
:100130007F0883120313D1005208043E8400831306
:100140000008FF007F08BE00AD2900300A128A15A2
:1001500090240A128A11FF007F0883120313D10032
:10016000AD291930FF007F08D107AD295208023EA2
:1001700084000008CF00D0015008003A0319C128BC
:10018000B1284F08A03A031991287F3A0319A528EE
:10019000B1285208033E840000080838FF007F0899
:1001A000B404F22801300A128A1110270A128A11A7
:1001B000FF007F0883120313D1005208043E84001D
:1001C00083130008FF007F08BD00AD2901300A122B
:1001D0008A1590240A128A11FF007F0883120313E4
:1001E000D100AD295208023E84000008CF00D001A2
:1001F0005008003A0319FD28B1284F08013A0319A5
:10020000D228FF3A0319E628B1285208033E840099
:100210000008FF007F08B4042D2901300A128A115A
:1002200010270A128A11FF007F0883120313D100DE
:100230005208043E840083130008FF007F08BD00BD
:10024000AD2901300A128A1590240A128A11FF0082
:100250007F0883120313D100AD295208023E8400A7
:100260000008CF00D0015008003A03193829B128FE
:100270004F08013A03190D29FF3A03192129B12822
:100280001730FF007F08D107AD29520A840000080B
:10029000CF00D0015008003A03194F2940294F08D8
:1002A000003A0319C928013A0319052940295208BF
:1002B000033E84000008FF007F0892047F2902307B
:1002C0000A128A1110270A128A11FF007F0883126E
:1002D0000313D1005208043E840083130008FF007A
:1002E0007F08BC00AD2902300A128A1590240A1238
:1002F0008A11FF007F0883120313D100AD29520831
:10030000023E84000008CF00D0015008003A0319D3
:100310008A29B1284F08023A03195F29FF3A0319C5
:100320007329B1281B30FF007F08D107AD2952087F
:10033000840083130008CF00D0015008003A03194D
:10034000A22992294F08003A03198A28013A031971
:100350004529033A031957299229510808008312A5
:100360000313CE00CD01BB01BB0A3A08031DB92916
:10037000BA29F029CF29831603138501EB298316A7
:1003800003138601EB29831603138701EB298316D8
:1003900003138801EB29831603138901EB294E0807
:1003A000840083130008CB00CC014C08003A0319E9
:1003B000DA29EB294B08003A0319BB29013A031942
:1003C000BF29033A0319C329013A0319C729073A78
:1003D0000319CB29EB290130FF007F088312BA07EC
:1003E0004E08840083130008031DF729F829012A09
:1003F0004E08033E84000008FF007F0883160313A5
:100400009F0483124E080319062A072ABE2AAC2A23
:100410004E08023E84000008FF007F088316031385
:100420008504C22A4E08023E84000008FF007F08AF
:10043000831603138604C22A4E08023E8400000875
:10044000FF007F08831603138704C22A4E08023E6A
:1004500084000008FF007F08831603138804C22A63
:100460004E08023E84000008FF007F088316031335
:100470008904C22A0F30FF007F08CD07C22A4E0828
:1004800084000008CB00CC014C08003A0319492A2B
:100490003A2A4B08003A0319082A013A0319122A8A
:1004A000033A03191C2A013A0319262A073A0319A9
:1004B000302A3A2A4E08023E84000009FF007F08D5
:1004C000831603138505C22A4E08023E84000009E4
:1004D000FF007F08831603138605C22A4E08023EDA
:1004E00084000009FF007F08831603138705C22AD2
:1004F0004E08023E84000009FF007F0883160313A4
:100500008805C22A4E08023E84000009FF007F08C9
:10051000831603138905C22A4E0884000008CB0005
:10052000CC014C08003A0319962A3A2A4B08003AA3
:1005300003195A2A013A0319642A033A03196E2A45
:10054000013A0319782A073A0319822A3A2A133002
:10055000FF007F08CD07C22A4E0A84000008CB00A6
:10056000CC014C08003A0319B62AA72A4B08003AD6
:1005700003193F2AFF3A03198C2AA72A1130FF00DA
:100580007F08CD0783124D08080083120313350836
:100590000319CB2ACC2A822BB501B6010730FF0004
:1005A0007F08CB0036080A128A1501220A128A1126
:1005B000A13E840083130008031DDF2AE02AE12AFC
:1005C000762B0730FF007F0883120313CB00360819
:1005D0000A128A1501220A128A11A53E84000130EE
:1005E00083138007840A0318800A0730FF007F08FE
:1005F00083120313CB0036080A128A1501220A124D
:100600008A11A53E84008313000883160317AE00E9
:10061000840A0008AF000730FF007F08831203132D
:10062000CB0036080A128A1501220A128A11A23E4C
:1006300084008313000883160317B000840A00089F
:10064000B1002F083106031D272B2E083006031D8D
:100650002A2B2B2B522B0730FF007F08831203130A
:10066000CB0036080A128A1501220A128A11A03E0E
:100670008400831300080A128A115C200A128A116E
:100680000730FF007F0883120313CB0036080A12DD
:100690008A1501220A128A11A53E84008313800163
:1006A000840A80010730FF007F0883120313CB0008
:1006B00036080A128A1501220A128A11A43E840001
:1006C00083130008031D652B662B762B0730FF0074
:1006D0007F0883120313CB0036080A128A15012201
:1006E0000A128A11A13E8400831380010130FF00A9
:1006F0007F0883120313B60703303602031C812BD5
:10070000822BCE2A080083120313D000CF013908B0
:10071000031D8B2B8C2B232C972B8501B02B860153
:10072000B02B8701B02B8801B02B8901B02B50086A
:10073000CD00CE014E08003A03199F2BB02B4D0877
:10074000003A03198D2B013A03198F2B033A031931
:10075000912B013A0319932B073A0319952BB02BD0
:100760000130FF007F08B907232C4B08FF007F08EA
:100770008504332C4B08FF007F088604332C4B087C
:10078000FF007F088704332C4B08FF007F08880494
:10079000332C4B08FF007F088904332C0F30FF00F7
:1007A0007F08CF07332C5008CD00CE014E08003A09
:1007B0000319DB2BCE2B4D08003A0319B52B013A58
:1007C0000319BA2B033A0319BF2B013A0319C42B9F
:1007D000073A0319C92BCE2B4B09FF007F0885056B
:1007E000332C4B09FF007F088605332C4B09FF0093
:1007F0007F088705332C4B09FF007F088805332CC1
:100800004B09FF007F088905332C5008CD00CE012D
:100810004E08003A03190D2CCE2B4D08003A03194F
:10082000EC2B013A0319F12B033A0319F62B013A89
:100830000319FB2B073A0319002CCE2B1330FF00B2
:100840007F08CF07332C4C08CD00CE014E08003A6C
:1008500003192B2C1E2C4D08003A0319052CFF3AC6
:100860000319D32B1E2C4F080800F500F401831246
:1008700003133908031D3D2C3E2CD52C492C850132
:10088000622C8601622C8701622C8801622C89010E
:10089000622C7508F200F3017308003A0319512C19
:1008A000622C7208003A03193F2C013A0319412CBB
:1008B000033A0319432C013A0319452C073A03194B
:1008C000472C622C0130FF007F08B907D52C700837
:1008D000FF007F088504E52C7008FF007F08860470
:1008E000E52C7008FF007F088704E52C7008FF00E6
:1008F0007F088804E52C7008FF007F088904E52C38
:100900000F30FF007F08F407E52C7508F200F301B3
:100910007308003A03198D2C802C7208003A0319D1
:10092000672C013A03196C2C033A0319712C013A14
:100930000319762C073A03197B2C802C7009FF00D1
:100940007F088505E52C7009FF007F088605E52CEA
:100950007009FF007F088705E52C7009FF007F08FC
:100960008805E52C7009FF007F088905E52C7508CE
:10097000F200F3017308003A0319BF2C802C7208AF
:10098000003A03199E2C013A0319A32C033A0319C8
:10099000A82C013A0319AD2C073A0319B22C802C6C
:1009A0001330FF007F08F407E52C7108F200F30113
:1009B0007308003A0319DD2CD02C7208003A031991
:1009C000B72CFF3A0319852CD02C74080800DC30B2
:1009D0000A128A1185200A128A11FF007F088312E9
:1009E0000313EB006430CB000030CC0000300A125F
:1009F0008A152D230A128A11FF007F088312031320
:100A0000EB0001300A128A117F250A128A11FF00B9
:100A10007F0883120313EB00CE01CE0ACF01013011
:100A2000D0000030D10009300A128A1189270A1239
:100A30008A11FF007F0883120313EB00CE01CE0A58
:100A4000CF01CF0A3230D0000030D1000C300A1272
:100A50008A1189270A128A11FF007F088312031363
:100A6000EB00CE01CE0A0230FF007F08CF00C43079
:100A7000D0000930D10006300A128A1189270A12E3
:100A80008A11FF007F0883120313EB00EB300A1278
:100A90008A11AF210A128A11FF007F088312031303
:100AA000EB005F300A128A11AF210A128A11FF008F
:100AB0007F0883120313EB00E6300A128A1109261D
:100AC0000A128A11FF007F0883120313EB000A1237
:100AD0008A15F9220A128A11FF007F088312031374
:100AE000EB000030DC000130DB008630DA00A030A3
:100AF000D9000A128A15C0250A128A110800831229
:100B00000313D7005708013E84000A128A150020FB
:100B10000A128A11FF007F08D500D6010130FF00BC
:100B20007F08B7075708031D962D972DB52D303038
:100B3000FF007F08D600B52DDC300A128A1185200F
:100B40000A128A11F02DD7300A128A1185200A1252
:100B50008A110430FF007F0883120313BC00F02DBC
:100B60000130FF007F08D607F02D5508D300D401CF
:100B70005408003A0319BD2DB02D5308003A03194B
:100B80009C2D023A0319A32DB02DFA30CB00003072
:100B9000CC0000300A128A152D230A128A11052E64
:100BA000FA30CB000030CC0002300A128A152D2317
:100BB0000A128A11052E0130FF007F08D607052E84
:100BC0005508D300D4015408003A0319E82DDB2D51
:100BD0005308003A0319C52D023A0319D02DDB2D15
:100BE00083120313570884000A128A1500200A1280
:100BF0008A11D300D4015408003A0319002EDB2DCA
:100C00005308013A0319E02DDB2D83120313560814
:100C1000080083120313D200D101520A8400043069
:100C2000831300020318152E162E352E5208023E8D
:100C300084000008CF005208840000084F040138E7
:100C4000FF007F089F04BF30FF007F088316031357
:100C50009F05831203135208033E84000008FF001F
:100C60007F08831603139F04792E520A84000430F0
:100C70000002031C3C2E3D2E5D2E520A84000830DB
:100C800000020318442E452E5D2E5208023E8400B9
:100C90000008CF005208840000084F040138FF000C
:100CA0007F089F045208033E840000084038FF007C
:100CB0007F08831603139F04792E1F30FF007F08DF
:100CC000D107792E40300A128A1110270A128A1190
:100CD000FF007F0883120313D1000130FF007F085B
:100CE000C3008D2E40300A128A1590240A128A11F0
:100CF0008D2E83125208043E84000008CF00D001DC
:100D00005008003A0319852E8D2E4F08403A0319DA
:100D1000622EFF3A0319722E8D2E8312031351088F
:100D2000080083120313D300D401FB2E2030FF00F0
:100D30007F08CB004430FF007F08CC0002300A124D
:100D40008A1574260A128A11831203134403031DA1
:100D5000AA2EAB2EB82E0130FF007F08A3070B3060
:100D60002302031CB42EB52EB82ED401D40A0E2FA4
:100D7000D4010E2F4030FF007F08CB004530FF002C
:100D80007F08CC0002300A128A1574260A128A11D2
:100D9000831203134503031DCE2ECF2EB82E013030
:100DA000FF007F08A3070B302302031CD82ED92E87
:100DB000B82E01300F2F8030FF007F08CB00463067
:100DC000FF007F08CC0002300A128A1574260A122E
:100DD0008A11831203134603031DEF2EF02EB82E43
:100DE0000130FF007F08A4070B302402031CF92EFA
:100DF000FA2EB82EB52E5308D100D2015208003A6F
:100E00000319032F0E2F5108003A0319962E013AA9
:100E10000319BA2E033A0319DB2E0E2F54080800CB
:100E200083120313CD00CE016D2FA030FF007F0889
:100E30008B044008031D1D2F1E2F1F2F8B17C00171
:100E4000C00A862F0A128A1533210A128A118316C4
:100E500003130C14831203133F08031D302F312F8B
:100E6000322F0B17BF01BF0A862F0A128A153321B2
:100E70000A128A11831203133F08031D402F412FCA
:100E8000422F0B17BF01BF0A831603138C14862F42
:100E90000A128A1533210A128A11831203133F089A
:100EA000031D532F542F322F312F0A128A1533214D
:100EB0000A128A11831203133F08031D602F612F4A
:100EC000622F0B17BF01BF0A831603130C17862F5F
:100ED0001D30FF007F08CE07862F4D08CB00CC01C8
:100EE0004C08003A0319752F682F4B08003A031974
:100EF000152F013A0319222F033A0319352F013A0E
:100F00000319482F433A0319552F682F83124E08AF
:100F1000080083120313D200D3010130FF007F08C1
:100F2000B5073703031D952F962FE02F0730FF00DD
:100F30007F08CB004F080A128A1501220A128A1173
:100F4000A03E8400831203135208FF007F0883131E
:100F500080000730FF007F08CB004F080A128A1577
:100F600001220A128A11A43E8400831203134E0840
:100F7000FF007F08831380000730FF007F08CB004D
:100F80004F080A128A1501220A128A11A23E840011
:100F900083120313500883138000840A51088000D1
:100FA0000730FF007F08CB004F080A128A15012284
:100FB0000A128A11A13E840083138001800AEF2F58
:100FC00002303702031CE52FE62FEB2F0A30FF001B
:100FD0007F08D307EF2F0C30FF007F08D307831261
:100FE000031353080800831603131419F82FF92F5D
:100FF000F32F11081F39031DFE2FFF2FF32F0800B9
:1010000008308A000408840A82070034013402345C
:10122C0064008001840A040603190034040617299B
:10123C00FE3406346D344F3466346D347D340734EB
:10124C007F346F340130FF007F0883120313B50025
:10125C00FD30FF007F088C05080083120313400843
:10126C00031D39293A293B298B17C001C00A0800F4
:10127C008316031391160A128A11F3270A128A1580
:10128C0083160313111608000A128A11F3270A1287
:10129C008A1500308316031391180130FF007F0864
:1012AC00910408000A128A11F3270A128A150030D9
:1012BC008316031311180130FF007F0891040800F6
:1012CC000A128A11F3270A128A15003083160313A7
:1012DC0011190130FF007F08910408000A128A11CD
:1012EC00E7240A128A150A128A11C5220A128A15D3
:1012FC0079290A128A1112282034FF34003401345F
:10130C00003406340334FF34FF34003400340C341E
:10131C00FF340634831203131E08AD008316031327
:10132C001E0883120313AC00BF30FF007F088C052E
:10133C000800831603138701831203131F15FF3054
:10134C00FF007F088706FB30FF007F088B05080035
:10135C00831603138701FF30FF007F0883120313EA
:10136C008706FF30FF007F088706FE30FF007F08EE
:10137C008C0508007E088A007F0882000A128A15F4
:10138C00C0210A128A158000840A04087D060319FC
:10139C000034FF0A0319FE0AC42983120313CB007D
:1013AC000A128A11F3270A128A15831203134B08A7
:1013BC0093008C1DE229E329DF298C110030831660
:1013CC000313111B013008000A128A11F3270A12A9
:1013DC008A1583160313911583128C1DF629F72990
:1013EC00F2298C110A128A11F3270A128A15831218
:1013FC0003131308080083120313CD00CC014D1CFA
:10140C00082A092A0D2A4B08FF007F08CC07031075
:10141C00CB0D0310CD0C4D08031D152A162A052AD9
:10142C004C08080001340034013430340D340134DC
:10143C00FF34FF34003402340034023402340434F8
:10144C000034C734A03400340A340034C234A0341D
:10145C0000340734003401344034803440340234D6
:10146C00F83400340034562A0130CF000030D0005C
:10147C000030D1000030D2004F08CB025008031CC2
:10148C00500F492A4A2ACC025108031C510F4F2AEB
:10149C00502ACD025208031C520F552A562ACE024E
:1014AC00831203134E084D044C044B04031D5F2A96
:1014BC00602A3A2A08003330831203134202031CB9
:1014CC00682A692A8A2A880141080A128A15D024B6
:1014DC000A128A158312031341082A3E84008313CF
:1014EC000008A43E840083170008FF007F088800D2
:1014FC00C2010130FF007F08C10702304106031D05
:10150C00882A892A8A2AC1010130FF007F08C20774
:10151C00FB30FF007F088B050800F800F901B42AA6
:10152C000430FF007F08F000F10100300A128A112C
:10153C0035240A128A15FF007F08F907C42A0830DF
:10154C00FF007F08F000F10100300A128A113524E7
:10155C000A128A15FF007F08F907C42A7808F600DA
:10156C00F7017708003A0319BC2AC42A7608003A16
:10157C000319962A013A0319A52AC42A79080800E6
:10158C000A128A1558210A128A15A0300A128A15D5
:10159C00D3210A128A15003A0319D52AD62ADB2A36
:1015AC000A128A154A210A128A15831203134D084E
:1015BC000A128A15D3210A128A15831203134C08B6
:1015CC000A128A15D3210A128A15831203134E08A4
:1015DC000A128A15D3210A128A150A128A15662153
:1015EC000A128A150800E1300A128A1185200A12A3
:1015FC008A1567300A128A11AF210A128A15FF0068
:10160C007F0883120313D50000300A128A15622357
:10161C000A128A15FF007F0883120313D5070130C5
:10162C000A128A1562230A128A15FF007F08831298
:10163C000313D50763300A128A11AF210A128A15D7
:10164C00FF007F0883120313D5005508080083128E
:10165C000313CF00D0014C2B5E08FF007F088316CC
:10166C00031381005F2B3408FF007F0890001014D7
:10167C005F2B12154B08FF007F0883160313920093
:10168C005F2B1B30FF007F08D0075F2B4F08CD006E
:10169C00CE014E08003A0319542B472B4D08003A43
:1016AC000319322B013A0319392B033A03193F2B37
:1016BC00472B83125008080083120313D300D40164
:1016CC00892B0430FF007F08CB00CC0100300A12BC
:1016DC008A1183230A128A15FF007F0883120313D1
:1016EC00D407992B0830FF007F08CB00CC010030C9
:1016FC000A128A1183230A128A15FF007F088312AB
:10170C000313D407992B5308D100D2015208003A85
:10171C000319912B992B5108003A0319672B013AA5
:10172C000319782B992B54080800003083120313EB
:10173C00CE000030CD000030CC000230CB000A12BD
:10174C008A1550240A128A15C530FF007F088312AF
:10175C0003139F051F080030CE000030CD00003071
:10176C00CC001E30CB000A128A1539220A128A15B7
:10177C00831203131F151F08D70004300310D70C56
:10178C00FF3E031DC42B5718CC2BCD2BC12B1E0891
:10179C00D600831603131E0883120313D50008000A
:1017AC000A128A1558210A128A150A128A154A2118
:1017BC000A128A15831203134D080A128A15D321B3
:1017CC000A128A15831203134C080A128A15D321A4
:1017DC000A128A150A128A154A210A128A15A13090
:1017EC000A128A15D3210A128A150A128A15EA21BD
:1017FC000A128A15FF007F0883120313CE000A1207
:10180C008A153E210A128A150A128A1566210A12B5
:10181C008A15831203134E08080083120313AF01B9
:10182C000A128A159B230A128A1583120313550870
:10183C000A128A15D1260A128A1520308312031334
:10184C00CC000030CD00CE010A128A15C6220A1235
:10185C008A15203083120313CC000030CD000A12FD
:10186C008A15D6230A128A1583120313D800D901BC
:10187C005808A8005908A9002E08D8005807903E0F
:10188C00840083178001840A80010130FF007F08E7
:10189C00AE070800852C1530FF007F08D400642C9F
:1018AC00FF30FF007F08D3005D2C0130D3025308BA
:1018BC00031D612C622C5B2C0130D4025408031DD7
:1018CC00682C692C562C0130CF000030D000003031
:1018DC00D1000030D2004F08CB025008031C500F2F
:1018EC00782C792CCC025108031C510F7E2C7F2CA8
:1018FC00CD025208031C520F842C852CCE0283126D
:10190C0003134E084D044C044B04031D8E2C8F2CDA
:10191C00512C080083120313CD00CE01B42CDF3000
:10192C00FF007F088B05CD2CFE30FF007F0883164F
:10193C0003138C05CD2CFD30FF007F088316031399
:10194C008C05CD2CBF30FF007F08831603138C054C
:10195C001D30FF007F088312CE07CD2C4D08CB0025
:10196C00CC014C08003A0319BC2CAE2C4B08003AA5
:10197C000319952C013A03199A2C033A0319A12C3B
:10198C00013A0319CD2C433A0319A82CAE2C83121F
:10199C004E080800FC00FD01092D01300A128A15C1
:1019AC0093220A128A15FF007F08FD070430FF00FE
:1019BC007F08F000FF30FF007F08F10000300A12B2
:1019CC008A1135240A128A15FF007F08FD07192D8C
:1019DC0000300A128A1593220A128A15FF007F081A
:1019EC00FD070830FF007F08F000FF30FF007F0884
:1019FC00F10000300A128A1135240A128A15FF00F0
:101A0C007F08FD07192D7C08FA00FB017B08003AC2
:101A1C000319112D192D7A08003A0319D32C013A08
:101A2C000319EE2C192D080000300A128A11912688
:101A3C000A128A15003A0319242D252D2B2D01305D
:101A4C00FF007F0883120313B1070B3083120313BB
:101A5C003102031C322D332D342DB10101300A1209
:101A6C008A1191260A128A15003A03193E2D3F2D30
:101A7C00452D0130FF007F0883120313B2070B3092
:101A8C00831203133202031C4C2D4D2D4E2DB2012B
:101A9C0002300A128A1191260A128A15003A031989
:101AAC00582D592D5F2D0130FF007F088312031331
:101ABC00B0070B30831203133002031C662D672D05
:101ACC00682DB00108000B1D6C2D6D2D772D8B1E14
:101ADC00702D712D772D3E080A128A1170200A1272
:101AEC008A15831203130C1C7C2D7D2D8B2D8316D4
:101AFC0003130C1C822D832D8B2D831203133D0895
:101B0C000A128A1170200A128A15831203138C1C74
:101B1C00902D912D9F2D831603138C1C962D972D94
:101B2C009F2D831203133C080A128A1170200A128B
:101B3C008A15831203130C1FA42DA52DB32D831608
:101B4C0003130C1FAA2DAB2DB32D831203134308C3
:101B5C000A128A1170200A128A15831203134A087A
:101B6C00FF0049088A0048088400470E8300FE0ED7
:101B7C007E0E09002830831203139400831603137E
:101B8C00910183120313590883160317AE008312B5
:101B9C0003135A0883160317AF00831203135B0851
:101BAC0083160317B000831203135C088316031704
:101BBC00B10002300310AE0DAF0DB00DB10DFF3EF4
:101BCC00031DE02D310883120313CE008316031777
:101BDC00300883120313CD00831603172F088312CA
:101BEC000313CC00831603172E0883120313CB00A8
:101BFC000030D2007A30D1001230D0000030CF004B
:101C0C000A128A152F270A128A15831203134B08FE
:101C1C00FF3E83160313930094010330FF007F08EB
:101C2C0087040715080083120313D001CE1F1F2E43
:101C3C00202E272ECD09CE09CD0A0319CE0AD001AC
:101C4C00D00ACC1F2A2E2B2E302ECB09CC09CB0A36
:101C5C000319CC0A4B084C040319352E362E652E6D
:101C6C00CF01CF0A442E01300310CB0DCC0DFF3E1B
:101C7C00031D3A2E0130FF007F08CF07CC1F472EE3
:101C8C00482E392E4C084E02031D4E2E4B084D0289
:101C9C00031C512E522E582E4B08CD024C08031CFF
:101CAC00CE03CE0201300310CC0CCB0CFF3E031D37
:101CBC00592E0130CF02031D642E652E482E50087C
:101CCC000319692E6A2E6F2ECD09CE09CD0A031980
:101CDC00CE0A4E08CC004D08CB000800831203132B
:101CEC00D000CF01AB2E05084B05FF004C0884003B
:101CFC007F0883138000C42E06084B05FF004C0898
:101D0C0084007F0883138000C42E07084B05FF0056
:101D1C004C0884007F0883138000C42E08084B05F0
:101D2C00FF004C0884007F0883138000C42E090830
:101D3C004B05FF004C0884007F0883138000C42EE1
:101D4C000E30FF007F08CF07C42E5008CD00CE0107
:101D5C004E08003A0319B32EA62E4D08003A03196B
:101D6C00792E013A0319822E033A03198B2E013A6C
:101D7C000319942E073A03199D2EA62E4C088400A5
:101D8C00831300080319CB2ECC2ED02E4C088400C4
:101D9C008001800A080083120313D600D50163303A
:101DAC0056020318DA2EDB2E122F0A305602031CB1
:101DBC00E02EE12E122F0A30CB000030CC0056085A
:101DCC00D300D4015308CD005408CE000A128A1552
:101DDC0097270A128A15831203134B08FF007F08FA
:101DEC00AA000A30CB000030CC005608D300D40136
:101DFC005308CD005408CE000A128A1519260A126F
:101E0C008A15831203134B08FF007F08D60056086F
:101E1C00FF007F08AB001E2F0A3056020318172F45
:101E2C00182F1A2FAA010D2F0130FF007F08D5079C
:101E3C006430CB000030CC0000300A128A152D2300
:101E4C000A128A15FF007F0883120313D500550868
:101E5C000800003083120313D7000030D600003086
:101E6C00D5000030D4004E084D044C044B0403192B
:101E7C00402F412F8E2FD801D80A512F0130D3007B
:101E8C000310CB0DCC0DCD0DCE0DD30B462F013049
:101E9C00FF007F08D807CE1F542F552F442F013039
:101EAC00D3000310D40DD50DD60DD70DD30B572F52
:101EBC004E085202031D6C2F4D085102031D6C2F4E
:101ECC004C085002031D6C2F4B084F02031C6F2F44
:101EDC00702F7F2F4B08CF024C08031C4C0FD002E5
:101EEC004D08031C4D0FD1024E08031C4E0FD2029D
:101EFC00541401300310CE0CCD0CCC0CCB0CFF3E8B
:101F0C00031D802F0130D802031D8D2F8E2F552FCE
:101F1C005708CE005608CD005508CC005408CB000D
:101F2C00080083120313D001CC1F9D2F9E2FA52FC9
:101F3C00CB09CC09CB0A0319CC0AD001D00ACE1F8D
:101F4C00A82FA92FB22FCD09CE09CD0A0319CE0A7D
:101F5C000130FF007F08D006D101D2014B084C04A0
:101F6C000319B92FBA2FF12FCF01CF0AC82F013087
:101F7C000310CB0DCC0DFF3E031DBE2F0130FF0017
:101F8C007F08CF07CC1FCB2FCC2FBD2F01300310D8
:101F9C00D10DD20DFF3E031DCD2F4C084E02031D5B
:101FAC00D92F4B084D02031CDC2FDD2FE42F4B08DF
:101FBC00CD024C08031CCE03CE0251140130031089
:101FCC00CC0CCB0CFF3E031DE52F0130CF02031DC3
:101FDC00F02FF12FCC2F50080319F52FF62FFB2FD4
:101FEC00D109D209D10A0319D20A5208CC005108DE
:041FFC00CB0008000E
:00000001FF
